{
  "_format": "hh-sol-artifact-1",
  "contractName": "Sal",
  "sourceName": "contracts/Sal2.sol",
  "abi": [
    {
      "inputs": [
        {
          "internalType": "string",
          "name": "_baseUri",
          "type": "string"
        }
      ],
      "stateMutability": "nonpayable",
      "type": "constructor"
    },
    {
      "anonymous": false,
      "inputs": [
        {
          "indexed": true,
          "internalType": "address",
          "name": "account",
          "type": "address"
        },
        {
          "indexed": true,
          "internalType": "address",
          "name": "operator",
          "type": "address"
        },
        {
          "indexed": false,
          "internalType": "bool",
          "name": "approved",
          "type": "bool"
        }
      ],
      "name": "ApprovalForAll",
      "type": "event"
    },
    {
      "anonymous": false,
      "inputs": [
        {
          "indexed": true,
          "internalType": "uint256",
          "name": "tokenId",
          "type": "uint256"
        },
        {
          "indexed": true,
          "internalType": "uint256",
          "name": "organizationId",
          "type": "uint256"
        },
        {
          "indexed": false,
          "internalType": "uint256",
          "name": "timestamp",
          "type": "uint256"
        },
        {
          "indexed": true,
          "internalType": "address",
          "name": "empAddress",
          "type": "address"
        }
      ],
      "name": "EmployeeRegistered",
      "type": "event"
    },
    {
      "anonymous": false,
      "inputs": [
        {
          "indexed": true,
          "internalType": "uint256",
          "name": "tokenId",
          "type": "uint256"
        },
        {
          "indexed": false,
          "internalType": "uint256",
          "name": "timestamp",
          "type": "uint256"
        },
        {
          "indexed": true,
          "internalType": "address",
          "name": "owner",
          "type": "address"
        }
      ],
      "name": "OrganizationRegistered",
      "type": "event"
    },
    {
      "anonymous": false,
      "inputs": [
        {
          "indexed": true,
          "internalType": "uint256",
          "name": "fromId",
          "type": "uint256"
        },
        {
          "indexed": true,
          "internalType": "uint256",
          "name": "toId",
          "type": "uint256"
        },
        {
          "indexed": false,
          "internalType": "uint256",
          "name": "amount",
          "type": "uint256"
        },
        {
          "indexed": false,
          "internalType": "enum Sal.PaymentType",
          "name": "ptype",
          "type": "uint8"
        }
      ],
      "name": "Payment",
      "type": "event"
    },
    {
      "anonymous": false,
      "inputs": [
        {
          "indexed": true,
          "internalType": "address",
          "name": "operator",
          "type": "address"
        },
        {
          "indexed": true,
          "internalType": "address",
          "name": "from",
          "type": "address"
        },
        {
          "indexed": true,
          "internalType": "address",
          "name": "to",
          "type": "address"
        },
        {
          "indexed": false,
          "internalType": "uint256[]",
          "name": "ids",
          "type": "uint256[]"
        },
        {
          "indexed": false,
          "internalType": "uint256[]",
          "name": "values",
          "type": "uint256[]"
        }
      ],
      "name": "TransferBatch",
      "type": "event"
    },
    {
      "anonymous": false,
      "inputs": [
        {
          "indexed": true,
          "internalType": "address",
          "name": "operator",
          "type": "address"
        },
        {
          "indexed": true,
          "internalType": "address",
          "name": "from",
          "type": "address"
        },
        {
          "indexed": true,
          "internalType": "address",
          "name": "to",
          "type": "address"
        },
        {
          "indexed": false,
          "internalType": "uint256",
          "name": "id",
          "type": "uint256"
        },
        {
          "indexed": false,
          "internalType": "uint256",
          "name": "value",
          "type": "uint256"
        }
      ],
      "name": "TransferSingle",
      "type": "event"
    },
    {
      "anonymous": false,
      "inputs": [
        {
          "indexed": false,
          "internalType": "string",
          "name": "value",
          "type": "string"
        },
        {
          "indexed": true,
          "internalType": "uint256",
          "name": "id",
          "type": "uint256"
        }
      ],
      "name": "URI",
      "type": "event"
    },
    {
      "inputs": [
        {
          "internalType": "address",
          "name": "account",
          "type": "address"
        },
        {
          "internalType": "uint256",
          "name": "id",
          "type": "uint256"
        }
      ],
      "name": "balanceOf",
      "outputs": [
        {
          "internalType": "uint256",
          "name": "",
          "type": "uint256"
        }
      ],
      "stateMutability": "view",
      "type": "function"
    },
    {
      "inputs": [
        {
          "internalType": "address[]",
          "name": "accounts",
          "type": "address[]"
        },
        {
          "internalType": "uint256[]",
          "name": "ids",
          "type": "uint256[]"
        }
      ],
      "name": "balanceOfBatch",
      "outputs": [
        {
          "internalType": "uint256[]",
          "name": "",
          "type": "uint256[]"
        }
      ],
      "stateMutability": "view",
      "type": "function"
    },
    {
      "inputs": [],
      "name": "baseUri",
      "outputs": [
        {
          "internalType": "string",
          "name": "",
          "type": "string"
        }
      ],
      "stateMutability": "view",
      "type": "function"
    },
    {
      "inputs": [
        {
          "internalType": "uint256",
          "name": "_empId",
          "type": "uint256"
        },
        {
          "internalType": "uint256",
          "name": "_organizationId",
          "type": "uint256"
        }
      ],
      "name": "deleteEmployee",
      "outputs": [],
      "stateMutability": "nonpayable",
      "type": "function"
    },
    {
      "inputs": [
        {
          "internalType": "uint256",
          "name": "_organizationId",
          "type": "uint256"
        }
      ],
      "name": "deleteOrganization",
      "outputs": [],
      "stateMutability": "nonpayable",
      "type": "function"
    },
    {
      "inputs": [
        {
          "internalType": "uint256",
          "name": "_empId",
          "type": "uint256"
        }
      ],
      "name": "getEmployeeById",
      "outputs": [
        {
          "components": [
            {
              "internalType": "uint256",
              "name": "id",
              "type": "uint256"
            },
            {
              "internalType": "uint256",
              "name": "organizationId",
              "type": "uint256"
            },
            {
              "internalType": "address payable",
              "name": "empAddress",
              "type": "address"
            },
            {
              "internalType": "string",
              "name": "name",
              "type": "string"
            }
          ],
          "internalType": "struct Sal.Employee",
          "name": "",
          "type": "tuple"
        }
      ],
      "stateMutability": "view",
      "type": "function"
    },
    {
      "inputs": [
        {
          "internalType": "uint256",
          "name": "_organizationId",
          "type": "uint256"
        }
      ],
      "name": "getOrganizationById",
      "outputs": [
        {
          "components": [
            {
              "internalType": "uint256",
              "name": "id",
              "type": "uint256"
            },
            {
              "internalType": "address payable",
              "name": "owner",
              "type": "address"
            },
            {
              "internalType": "string",
              "name": "name",
              "type": "string"
            },
            {
              "internalType": "string",
              "name": "ownerName",
              "type": "string"
            },
            {
              "internalType": "uint256[]",
              "name": "employees",
              "type": "uint256[]"
            },
            {
              "internalType": "bool",
              "name": "isDeleted",
              "type": "bool"
            }
          ],
          "internalType": "struct Sal.Organization",
          "name": "",
          "type": "tuple"
        }
      ],
      "stateMutability": "view",
      "type": "function"
    },
    {
      "inputs": [
        {
          "internalType": "address",
          "name": "_user",
          "type": "address"
        }
      ],
      "name": "getUserEmployeeAt",
      "outputs": [
        {
          "internalType": "uint256[]",
          "name": "",
          "type": "uint256[]"
        }
      ],
      "stateMutability": "view",
      "type": "function"
    },
    {
      "inputs": [
        {
          "internalType": "address",
          "name": "_user",
          "type": "address"
        }
      ],
      "name": "getUserOrganizations",
      "outputs": [
        {
          "internalType": "uint256[]",
          "name": "",
          "type": "uint256[]"
        }
      ],
      "stateMutability": "view",
      "type": "function"
    },
    {
      "inputs": [
        {
          "internalType": "address",
          "name": "account",
          "type": "address"
        },
        {
          "internalType": "address",
          "name": "operator",
          "type": "address"
        }
      ],
      "name": "isApprovedForAll",
      "outputs": [
        {
          "internalType": "bool",
          "name": "",
          "type": "bool"
        }
      ],
      "stateMutability": "view",
      "type": "function"
    },
    {
      "inputs": [
        {
          "internalType": "address",
          "name": "_empAddress",
          "type": "address"
        },
        {
          "internalType": "string",
          "name": "_name",
          "type": "string"
        },
        {
          "internalType": "uint256",
          "name": "_organizationId",
          "type": "uint256"
        }
      ],
      "name": "registerEmployee",
      "outputs": [],
      "stateMutability": "nonpayable",
      "type": "function"
    },
    {
      "inputs": [
        {
          "internalType": "string",
          "name": "_name",
          "type": "string"
        },
        {
          "internalType": "string",
          "name": "_ownerName",
          "type": "string"
        }
      ],
      "name": "registerOrganization",
      "outputs": [],
      "stateMutability": "nonpayable",
      "type": "function"
    },
    {
      "inputs": [
        {
          "internalType": "address",
          "name": "from",
          "type": "address"
        },
        {
          "internalType": "address",
          "name": "to",
          "type": "address"
        },
        {
          "internalType": "uint256[]",
          "name": "ids",
          "type": "uint256[]"
        },
        {
          "internalType": "uint256[]",
          "name": "amounts",
          "type": "uint256[]"
        },
        {
          "internalType": "bytes",
          "name": "data",
          "type": "bytes"
        }
      ],
      "name": "safeBatchTransferFrom",
      "outputs": [],
      "stateMutability": "nonpayable",
      "type": "function"
    },
    {
      "inputs": [
        {
          "internalType": "address",
          "name": "from",
          "type": "address"
        },
        {
          "internalType": "address",
          "name": "to",
          "type": "address"
        },
        {
          "internalType": "uint256",
          "name": "id",
          "type": "uint256"
        },
        {
          "internalType": "uint256",
          "name": "amount",
          "type": "uint256"
        },
        {
          "internalType": "bytes",
          "name": "data",
          "type": "bytes"
        }
      ],
      "name": "safeTransferFrom",
      "outputs": [],
      "stateMutability": "nonpayable",
      "type": "function"
    },
    {
      "inputs": [
        {
          "internalType": "address",
          "name": "operator",
          "type": "address"
        },
        {
          "internalType": "bool",
          "name": "approved",
          "type": "bool"
        }
      ],
      "name": "setApprovalForAll",
      "outputs": [],
      "stateMutability": "nonpayable",
      "type": "function"
    },
    {
      "inputs": [
        {
          "internalType": "bytes4",
          "name": "interfaceId",
          "type": "bytes4"
        }
      ],
      "name": "supportsInterface",
      "outputs": [
        {
          "internalType": "bool",
          "name": "",
          "type": "bool"
        }
      ],
      "stateMutability": "view",
      "type": "function"
    },
    {
      "inputs": [
        {
          "internalType": "uint256",
          "name": "",
          "type": "uint256"
        }
      ],
      "name": "uri",
      "outputs": [
        {
          "internalType": "string",
          "name": "",
          "type": "string"
        }
      ],
      "stateMutability": "view",
      "type": "function"
    }
  ],
  "bytecode": "0x6080604052600160045560016005553480156200001b57600080fd5b5060405162004a5138038062004a518339818101604052810190620000419190620002dd565b8062000053816200007460201b60201c565b5080600390805190602001906200006c92919062000090565b505062000393565b80600290805190602001906200008c92919062000090565b5050565b8280546200009e906200035d565b90600052602060002090601f016020900481019282620000c257600085556200010e565b82601f10620000dd57805160ff19168380011785556200010e565b828001600101855582156200010e579182015b828111156200010d578251825591602001919060010190620000f0565b5b5090506200011d919062000121565b5090565b5b808211156200013c57600081600090555060010162000122565b5090565b6000604051905090565b600080fd5b600080fd5b600080fd5b600080fd5b6000601f19601f8301169050919050565b7f4e487b7100000000000000000000000000000000000000000000000000000000600052604160045260246000fd5b620001a9826200015e565b810181811067ffffffffffffffff82111715620001cb57620001ca6200016f565b5b80604052505050565b6000620001e062000140565b9050620001ee82826200019e565b919050565b600067ffffffffffffffff8211156200021157620002106200016f565b5b6200021c826200015e565b9050602081019050919050565b60005b83811015620002495780820151818401526020810190506200022c565b8381111562000259576000848401525b50505050565b6000620002766200027084620001f3565b620001d4565b90508281526020810184848401111562000295576200029462000159565b5b620002a284828562000229565b509392505050565b600082601f830112620002c257620002c162000154565b5b8151620002d48482602086016200025f565b91505092915050565b600060208284031215620002f657620002f56200014a565b5b600082015167ffffffffffffffff8111156200031757620003166200014f565b5b6200032584828501620002aa565b91505092915050565b7f4e487b7100000000000000000000000000000000000000000000000000000000600052602260045260246000fd5b600060028204905060018216806200037657607f821691505b602082108114156200038d576200038c6200032e565b5b50919050565b6146ae80620003a36000396000f3fe608060405234801561001057600080fd5b506004361061010a5760003560e01c80639abc8320116100a2578063ceed5f5a11610071578063ceed5f5a146102ed578063d80065a01461031d578063dc1301af14610339578063e985e9c514610355578063f242432a146103855761010a565b80639abc832014610267578063a22cb46514610285578063aa097ef0146102a1578063c3bbfe43146102d15761010a565b80632eb2c2d6116100de5780632eb2c2d6146101bb5780634e1273f4146101d7578063635c54551461020757806384875b6e146102375761010a565b8062fdd58e1461010f57806301ffc9a71461013f5780630e89341c1461016f578063247a50d81461019f575b600080fd5b61012960048036038101906101249190612a9e565b6103a1565b6040516101369190612aed565b60405180910390f35b61015960048036038101906101549190612b60565b61046a565b6040516101669190612ba8565b60405180910390f35b61018960048036038101906101849190612bc3565b61054c565b6040516101969190612c89565b60405180910390f35b6101b960048036038101906101b49190612de0565b6105e0565b005b6101d560048036038101906101d09190612fc1565b6107e5565b005b6101f160048036038101906101ec9190613153565b610886565b6040516101fe9190613289565b60405180910390f35b610221600480360381019061021c9190612bc3565b61099f565b60405161022e919061342b565b60405180910390f35b610251600480360381019061024c919061344d565b610c15565b60405161025e9190613289565b60405180910390f35b61026f610cac565b60405161027c9190612c89565b60405180910390f35b61029f600480360381019061029a91906134a6565b610d3a565b005b6102bb60048036038101906102b6919061344d565b610d50565b6040516102c89190613289565b60405180910390f35b6102eb60048036038101906102e691906134e6565b610de7565b005b61030760048036038101906103029190612bc3565b61110d565b60405161031491906135b8565b60405180910390f35b610337600480360381019061033291906135da565b611288565b005b610353600480360381019061034e9190612bc3565b611533565b005b61036f600480360381019061036a919061361a565b611672565b60405161037c9190612ba8565b60405180910390f35b61039f600480360381019061039a919061365a565b611706565b005b60008073ffffffffffffffffffffffffffffffffffffffff168373ffffffffffffffffffffffffffffffffffffffff161415610412576040517f08c379a000000000000000000000000000000000000000000000000000000000815260040161040990613763565b60405180910390fd5b60008083815260200190815260200160002060008473ffffffffffffffffffffffffffffffffffffffff1673ffffffffffffffffffffffffffffffffffffffff16815260200190815260200160002054905092915050565b60007fd9b67a26000000000000000000000000000000000000000000000000000000007bffffffffffffffffffffffffffffffffffffffffffffffffffffffff1916827bffffffffffffffffffffffffffffffffffffffffffffffffffffffff1916148061053557507f0e89341c000000000000000000000000000000000000000000000000000000007bffffffffffffffffffffffffffffffffffffffffffffffffffffffff1916827bffffffffffffffffffffffffffffffffffffffffffffffffffffffff1916145b806105455750610544826117a7565b5b9050919050565b60606002805461055b906137b2565b80601f0160208091040260200160405190810160405280929190818152602001828054610587906137b2565b80156105d45780601f106105a9576101008083540402835291602001916105d4565b820191906000526020600020905b8154815290600101906020018083116105b757829003601f168201915b50505050509050919050565b600a6105eb33610d50565b51111561062d576040517f08c379a000000000000000000000000000000000000000000000000000000000815260040161062490613856565b60405180910390fd5b600060056000815480929190610642906138a5565b9190505590508060066000838152602001908152602001600020600001819055508260066000838152602001908152602001600020600201908051906020019061068d92919061287a565b50816006600083815260200190815260200160002060030190805190602001906106b892919061287a565b50336006600083815260200190815260200160002060010160006101000a81548173ffffffffffffffffffffffffffffffffffffffff021916908373ffffffffffffffffffffffffffffffffffffffff160217905550600860003373ffffffffffffffffffffffffffffffffffffffff1673ffffffffffffffffffffffffffffffffffffffff168152602001908152602001600020819080600181540180825580915050600190039060005260206000200160009091909190915055610791336000600160405180602001604052806000815250611811565b3373ffffffffffffffffffffffffffffffffffffffff16817f87fbadfd943258f8e1417487d6173b6fd2a7ecb38bb6d797fec6cdc57e4aa20e426040516107d89190612aed565b60405180910390a3505050565b6107ed6119c2565b73ffffffffffffffffffffffffffffffffffffffff168573ffffffffffffffffffffffffffffffffffffffff16148061083357506108328561082d6119c2565b611672565b5b610872576040517f08c379a000000000000000000000000000000000000000000000000000000000815260040161086990613960565b60405180910390fd5b61087f85858585856119ca565b5050505050565b606081518351146108cc576040517f08c379a00000000000000000000000000000000000000000000000000000000081526004016108c3906139f2565b60405180910390fd5b6000835167ffffffffffffffff8111156108e9576108e8612cb5565b5b6040519080825280602002602001820160405280156109175781602001602082028036833780820191505090505b50905060005b84518110156109945761096485828151811061093c5761093b613a12565b5b602002602001015185838151811061095757610956613a12565b5b60200260200101516103a1565b82828151811061097757610976613a12565b5b6020026020010181815250508061098d906138a5565b905061091d565b508091505092915050565b6109a7612900565b600182101580156109ba57506005548211155b6109f9576040517f08c379a00000000000000000000000000000000000000000000000000000000081526004016109f090613ab3565b60405180910390fd5b600660008381526020019081526020016000206040518060c0016040529081600082015481526020016001820160009054906101000a900473ffffffffffffffffffffffffffffffffffffffff1673ffffffffffffffffffffffffffffffffffffffff1673ffffffffffffffffffffffffffffffffffffffff168152602001600282018054610a87906137b2565b80601f0160208091040260200160405190810160405280929190818152602001828054610ab3906137b2565b8015610b005780601f10610ad557610100808354040283529160200191610b00565b820191906000526020600020905b815481529060010190602001808311610ae357829003601f168201915b50505050508152602001600382018054610b19906137b2565b80601f0160208091040260200160405190810160405280929190818152602001828054610b45906137b2565b8015610b925780601f10610b6757610100808354040283529160200191610b92565b820191906000526020600020905b815481529060010190602001808311610b7557829003601f168201915b5050505050815260200160048201805480602002602001604051908101604052809291908181526020018280548015610bea57602002820191906000526020600020905b815481526020019060010190808311610bd6575b505050505081526020016005820160009054906101000a900460ff1615151515815250509050919050565b6060600960008373ffffffffffffffffffffffffffffffffffffffff1673ffffffffffffffffffffffffffffffffffffffff168152602001908152602001600020805480602002602001604051908101604052809291908181526020018280548015610ca057602002820191906000526020600020905b815481526020019060010190808311610c8c575b50505050509050919050565b60038054610cb9906137b2565b80601f0160208091040260200160405190810160405280929190818152602001828054610ce5906137b2565b8015610d325780601f10610d0757610100808354040283529160200191610d32565b820191906000526020600020905b815481529060010190602001808311610d1557829003601f168201915b505050505081565b610d4c610d456119c2565b8383611cec565b5050565b6060600860008373ffffffffffffffffffffffffffffffffffffffff1673ffffffffffffffffffffffffffffffffffffffff168152602001908152602001600020805480602002602001604051908101604052809291908181526020018280548015610ddb57602002820191906000526020600020905b815481526020019060010190808311610dc7575b50505050509050919050565b60018110158015610dfa57506005548111155b610e39576040517f08c379a0000000000000000000000000000000000000000000000000000000008152600401610e3090613ab3565b60405180910390fd5b3373ffffffffffffffffffffffffffffffffffffffff166006600083815260200190815260200160002060010160009054906101000a900473ffffffffffffffffffffffffffffffffffffffff1673ffffffffffffffffffffffffffffffffffffffff1614610edd576040517f08c379a0000000000000000000000000000000000000000000000000000000008152600401610ed490613b45565b60405180910390fd5b610ee78382611e59565b15610f27576040517f08c379a0000000000000000000000000000000000000000000000000000000008152600401610f1e90613bd7565b60405180910390fd5b600060046000815480929190610f3c906138a5565b91905055905080600760008381526020019081526020016000206000018190555081600760008381526020019081526020016000206001018190555082600760008381526020019081526020016000206003019080519060200190610fa292919061287a565b50836007600083815260200190815260200160002060020160006101000a81548173ffffffffffffffffffffffffffffffffffffffff021916908373ffffffffffffffffffffffffffffffffffffffff16021790555060066000838152602001908152602001600020600401819080600181540180825580915050600190039060005260206000200160009091909190915055600960008573ffffffffffffffffffffffffffffffffffffffff1673ffffffffffffffffffffffffffffffffffffffff1681526020019081526020016000208290806001815401808255809150506001900390600052602060002001600090919091909150556110b78460018060405180602001604052806000815250611811565b8373ffffffffffffffffffffffffffffffffffffffff1682827fdaa0b4f5b25efca9b8858a78117b41973b15d5caaf1c79939e5eb075460afbe7426040516110ff9190612aed565b60405180910390a450505050565b61111561294e565b6001821015801561112857506004548211155b611167576040517f08c379a000000000000000000000000000000000000000000000000000000000815260040161115e90613c69565b60405180910390fd5b6007600083815260200190815260200160002060405180608001604052908160008201548152602001600182015481526020016002820160009054906101000a900473ffffffffffffffffffffffffffffffffffffffff1673ffffffffffffffffffffffffffffffffffffffff1673ffffffffffffffffffffffffffffffffffffffff1681526020016003820180546111ff906137b2565b80601f016020809104026020016040519081016040528092919081815260200182805461122b906137b2565b80156112785780601f1061124d57610100808354040283529160200191611278565b820191906000526020600020905b81548152906001019060200180831161125b57829003601f168201915b5050505050815250509050919050565b3373ffffffffffffffffffffffffffffffffffffffff166006600083815260200190815260200160002060010160009054906101000a900473ffffffffffffffffffffffffffffffffffffffff1673ffffffffffffffffffffffffffffffffffffffff161461132c576040517f08c379a000000000000000000000000000000000000000000000000000000000815260040161132390613b45565b60405180910390fd5b60006006600083815260200190815260200160002060040180549050905060008060018361135a9190613c89565b67ffffffffffffffff81111561137357611372612cb5565b5b6040519080825280602002602001820160405280156113a15781602001602082028036833780820191505090505b5090506000805b600660008781526020019081526020016000206004018054905081101561147d57866006600088815260200190815260200160002060040182815481106113f2576113f1613a12565b5b9060005260206000200154146114655760066000878152602001908152602001600020600401818154811061142a57611429613a12565b5b9060005260206000200154838580611441906138a5565b96508151811061145457611453613a12565b5b60200260200101818152505061146a565b600191505b8080611475906138a5565b9150506113a8565b50806114be576040517f08c379a00000000000000000000000000000000000000000000000000000000081526004016114b590613d2f565b60405180910390fd5b816006600087815260200190815260200160002060040190805190602001906114e892919061298c565b5061152b6007600088815260200190815260200160002060020160009054906101000a900473ffffffffffffffffffffffffffffffffffffffff16600180611f3a565b505050505050565b600060066000838152602001908152602001600020600401805490501461158f576040517f08c379a000000000000000000000000000000000000000000000000000000000815260040161158690613dc1565b60405180910390fd5b3373ffffffffffffffffffffffffffffffffffffffff166006600083815260200190815260200160002060010160009054906101000a900473ffffffffffffffffffffffffffffffffffffffff1673ffffffffffffffffffffffffffffffffffffffff1614611633576040517f08c379a000000000000000000000000000000000000000000000000000000000815260040161162a90613e53565b60405180910390fd5b60016006600083815260200190815260200160002060050160006101000a81548160ff02191690831515021790555061166f3360006001611f3a565b50565b6000600160008473ffffffffffffffffffffffffffffffffffffffff1673ffffffffffffffffffffffffffffffffffffffff16815260200190815260200160002060008373ffffffffffffffffffffffffffffffffffffffff1673ffffffffffffffffffffffffffffffffffffffff16815260200190815260200160002060009054906101000a900460ff16905092915050565b61170e6119c2565b73ffffffffffffffffffffffffffffffffffffffff168573ffffffffffffffffffffffffffffffffffffffff16148061175457506117538561174e6119c2565b611672565b5b611793576040517f08c379a000000000000000000000000000000000000000000000000000000000815260040161178a90613960565b60405180910390fd5b6117a08585858585612181565b5050505050565b60007f01ffc9a7000000000000000000000000000000000000000000000000000000007bffffffffffffffffffffffffffffffffffffffffffffffffffffffff1916827bffffffffffffffffffffffffffffffffffffffffffffffffffffffff1916149050919050565b600073ffffffffffffffffffffffffffffffffffffffff168473ffffffffffffffffffffffffffffffffffffffff161415611881576040517f08c379a000000000000000000000000000000000000000000000000000000000815260040161187890613ee5565b60405180910390fd5b600061188b6119c2565b905060006118988561241d565b905060006118a58561241d565b90506118b683600089858589612497565b8460008088815260200190815260200160002060008973ffffffffffffffffffffffffffffffffffffffff1673ffffffffffffffffffffffffffffffffffffffff16815260200190815260200160002060008282546119159190613f05565b925050819055508673ffffffffffffffffffffffffffffffffffffffff16600073ffffffffffffffffffffffffffffffffffffffff168473ffffffffffffffffffffffffffffffffffffffff167fc3d58168c5ae7397731d063d5bbf3d657854427343f4c083240f7aacaa2d0f628989604051611993929190613f5b565b60405180910390a46119aa8360008985858961249f565b6119b9836000898989896124a7565b50505050505050565b600033905090565b8151835114611a0e576040517f08c379a0000000000000000000000000000000000000000000000000000000008152600401611a0590613ff6565b60405180910390fd5b600073ffffffffffffffffffffffffffffffffffffffff168473ffffffffffffffffffffffffffffffffffffffff161415611a7e576040517f08c379a0000000000000000000000000000000000000000000000000000000008152600401611a7590614088565b60405180910390fd5b6000611a886119c2565b9050611a98818787878787612497565b60005b8451811015611c49576000858281518110611ab957611ab8613a12565b5b602002602001015190506000858381518110611ad857611ad7613a12565b5b60200260200101519050600080600084815260200190815260200160002060008b73ffffffffffffffffffffffffffffffffffffffff1673ffffffffffffffffffffffffffffffffffffffff16815260200190815260200160002054905081811015611b79576040517f08c379a0000000000000000000000000000000000000000000000000000000008152600401611b709061411a565b60405180910390fd5b81810360008085815260200190815260200160002060008c73ffffffffffffffffffffffffffffffffffffffff1673ffffffffffffffffffffffffffffffffffffffff168152602001908152602001600020819055508160008085815260200190815260200160002060008b73ffffffffffffffffffffffffffffffffffffffff1673ffffffffffffffffffffffffffffffffffffffff1681526020019081526020016000206000828254611c2e9190613f05565b9250508190555050505080611c42906138a5565b9050611a9b565b508473ffffffffffffffffffffffffffffffffffffffff168673ffffffffffffffffffffffffffffffffffffffff168273ffffffffffffffffffffffffffffffffffffffff167f4a39dc06d4c0dbc64b70af90fd698a233a518aa5d07e595d983b8c0526c8f7fb8787604051611cc092919061413a565b60405180910390a4611cd681878787878761249f565b611ce481878787878761267f565b505050505050565b8173ffffffffffffffffffffffffffffffffffffffff168373ffffffffffffffffffffffffffffffffffffffff161415611d5b576040517f08c379a0000000000000000000000000000000000000000000000000000000008152600401611d52906141e3565b60405180910390fd5b80600160008573ffffffffffffffffffffffffffffffffffffffff1673ffffffffffffffffffffffffffffffffffffffff16815260200190815260200160002060008473ffffffffffffffffffffffffffffffffffffffff1673ffffffffffffffffffffffffffffffffffffffff16815260200190815260200160002060006101000a81548160ff0219169083151502179055508173ffffffffffffffffffffffffffffffffffffffff168373ffffffffffffffffffffffffffffffffffffffff167f17307eab39ab6107e8899845ad3d59bd9653f200f220920489ca2b5937696c3183604051611e4c9190612ba8565b60405180910390a3505050565b600080600960008573ffffffffffffffffffffffffffffffffffffffff1673ffffffffffffffffffffffffffffffffffffffff168152602001908152602001600020805480602002602001604051908101604052809291908181526020018280548015611ee557602002820191906000526020600020905b815481526020019060010190808311611ed1575b5050505050905060005b8151811015611f325783828281518110611f0c57611f0b613a12565b5b60200260200101511415611f1f57600192505b8080611f2a906138a5565b915050611eef565b505092915050565b600073ffffffffffffffffffffffffffffffffffffffff168373ffffffffffffffffffffffffffffffffffffffff161415611faa576040517f08c379a0000000000000000000000000000000000000000000000000000000008152600401611fa190614275565b60405180910390fd5b6000611fb46119c2565b90506000611fc18461241d565b90506000611fce8461241d565b9050611fee83876000858560405180602001604052806000815250612497565b600080600087815260200190815260200160002060008873ffffffffffffffffffffffffffffffffffffffff1673ffffffffffffffffffffffffffffffffffffffff16815260200190815260200160002054905084811015612085576040517f08c379a000000000000000000000000000000000000000000000000000000000815260040161207c90614307565b60405180910390fd5b84810360008088815260200190815260200160002060008973ffffffffffffffffffffffffffffffffffffffff1673ffffffffffffffffffffffffffffffffffffffff16815260200190815260200160002081905550600073ffffffffffffffffffffffffffffffffffffffff168773ffffffffffffffffffffffffffffffffffffffff168573ffffffffffffffffffffffffffffffffffffffff167fc3d58168c5ae7397731d063d5bbf3d657854427343f4c083240f7aacaa2d0f628989604051612152929190613f5b565b60405180910390a46121788488600086866040518060200160405280600081525061249f565b50505050505050565b600073ffffffffffffffffffffffffffffffffffffffff168473ffffffffffffffffffffffffffffffffffffffff1614156121f1576040517f08c379a00000000000000000000000000000000000000000000000000000000081526004016121e890614088565b60405180910390fd5b60006121fb6119c2565b905060006122088561241d565b905060006122158561241d565b9050612225838989858589612497565b600080600088815260200190815260200160002060008a73ffffffffffffffffffffffffffffffffffffffff1673ffffffffffffffffffffffffffffffffffffffff168152602001908152602001600020549050858110156122bc576040517f08c379a00000000000000000000000000000000000000000000000000000000081526004016122b39061411a565b60405180910390fd5b85810360008089815260200190815260200160002060008b73ffffffffffffffffffffffffffffffffffffffff1673ffffffffffffffffffffffffffffffffffffffff168152602001908152602001600020819055508560008089815260200190815260200160002060008a73ffffffffffffffffffffffffffffffffffffffff1673ffffffffffffffffffffffffffffffffffffffff16815260200190815260200160002060008282546123719190613f05565b925050819055508773ffffffffffffffffffffffffffffffffffffffff168973ffffffffffffffffffffffffffffffffffffffff168573ffffffffffffffffffffffffffffffffffffffff167fc3d58168c5ae7397731d063d5bbf3d657854427343f4c083240f7aacaa2d0f628a8a6040516123ee929190613f5b565b60405180910390a4612404848a8a86868a61249f565b612412848a8a8a8a8a6124a7565b505050505050505050565b60606000600167ffffffffffffffff81111561243c5761243b612cb5565b5b60405190808252806020026020018201604052801561246a5781602001602082028036833780820191505090505b509050828160008151811061248257612481613a12565b5b60200260200101818152505080915050919050565b505050505050565b505050505050565b6124c68473ffffffffffffffffffffffffffffffffffffffff16612857565b15612677578373ffffffffffffffffffffffffffffffffffffffff1663f23a6e6187878686866040518663ffffffff1660e01b815260040161250c95949392919061438b565b6020604051808303816000875af192505050801561254857506040513d601f19601f8201168201806040525081019061254591906143fa565b60015b6125ee57612554614434565b806308c379a014156125b15750612569614456565b8061257457506125b3565b806040517f08c379a00000000000000000000000000000000000000000000000000000000081526004016125a89190612c89565b60405180910390fd5b505b6040517f08c379a00000000000000000000000000000000000000000000000000000000081526004016125e59061455e565b60405180910390fd5b63f23a6e6160e01b7bffffffffffffffffffffffffffffffffffffffffffffffffffffffff1916817bffffffffffffffffffffffffffffffffffffffffffffffffffffffff191614612675576040517f08c379a000000000000000000000000000000000000000000000000000000000815260040161266c906145f0565b60405180910390fd5b505b505050505050565b61269e8473ffffffffffffffffffffffffffffffffffffffff16612857565b1561284f578373ffffffffffffffffffffffffffffffffffffffff1663bc197c8187878686866040518663ffffffff1660e01b81526004016126e4959493929190614610565b6020604051808303816000875af192505050801561272057506040513d601f19601f8201168201806040525081019061271d91906143fa565b60015b6127c65761272c614434565b806308c379a014156127895750612741614456565b8061274c575061278b565b806040517f08c379a00000000000000000000000000000000000000000000000000000000081526004016127809190612c89565b60405180910390fd5b505b6040517f08c379a00000000000000000000000000000000000000000000000000000000081526004016127bd9061455e565b60405180910390fd5b63bc197c8160e01b7bffffffffffffffffffffffffffffffffffffffffffffffffffffffff1916817bffffffffffffffffffffffffffffffffffffffffffffffffffffffff19161461284d576040517f08c379a0000000000000000000000000000000000000000000000000000000008152600401612844906145f0565b60405180910390fd5b505b505050505050565b6000808273ffffffffffffffffffffffffffffffffffffffff163b119050919050565b828054612886906137b2565b90600052602060002090601f0160209004810192826128a857600085556128ef565b82601f106128c157805160ff19168380011785556128ef565b828001600101855582156128ef579182015b828111156128ee5782518255916020019190600101906128d3565b5b5090506128fc91906129d9565b5090565b6040518060c0016040528060008152602001600073ffffffffffffffffffffffffffffffffffffffff1681526020016060815260200160608152602001606081526020016000151581525090565b60405180608001604052806000815260200160008152602001600073ffffffffffffffffffffffffffffffffffffffff168152602001606081525090565b8280548282559060005260206000209081019282156129c8579160200282015b828111156129c75782518255916020019190600101906129ac565b5b5090506129d591906129d9565b5090565b5b808211156129f25760008160009055506001016129da565b5090565b6000604051905090565b600080fd5b600080fd5b600073ffffffffffffffffffffffffffffffffffffffff82169050919050565b6000612a3582612a0a565b9050919050565b612a4581612a2a565b8114612a5057600080fd5b50565b600081359050612a6281612a3c565b92915050565b6000819050919050565b612a7b81612a68565b8114612a8657600080fd5b50565b600081359050612a9881612a72565b92915050565b60008060408385031215612ab557612ab4612a00565b5b6000612ac385828601612a53565b9250506020612ad485828601612a89565b9150509250929050565b612ae781612a68565b82525050565b6000602082019050612b026000830184612ade565b92915050565b60007fffffffff0000000000000000000000000000000000000000000000000000000082169050919050565b612b3d81612b08565b8114612b4857600080fd5b50565b600081359050612b5a81612b34565b92915050565b600060208284031215612b7657612b75612a00565b5b6000612b8484828501612b4b565b91505092915050565b60008115159050919050565b612ba281612b8d565b82525050565b6000602082019050612bbd6000830184612b99565b92915050565b600060208284031215612bd957612bd8612a00565b5b6000612be784828501612a89565b91505092915050565b600081519050919050565b600082825260208201905092915050565b60005b83811015612c2a578082015181840152602081019050612c0f565b83811115612c39576000848401525b50505050565b6000601f19601f8301169050919050565b6000612c5b82612bf0565b612c658185612bfb565b9350612c75818560208601612c0c565b612c7e81612c3f565b840191505092915050565b60006020820190508181036000830152612ca38184612c50565b905092915050565b600080fd5b600080fd5b7f4e487b7100000000000000000000000000000000000000000000000000000000600052604160045260246000fd5b612ced82612c3f565b810181811067ffffffffffffffff82111715612d0c57612d0b612cb5565b5b80604052505050565b6000612d1f6129f6565b9050612d2b8282612ce4565b919050565b600067ffffffffffffffff821115612d4b57612d4a612cb5565b5b612d5482612c3f565b9050602081019050919050565b82818337600083830152505050565b6000612d83612d7e84612d30565b612d15565b905082815260208101848484011115612d9f57612d9e612cb0565b5b612daa848285612d61565b509392505050565b600082601f830112612dc757612dc6612cab565b5b8135612dd7848260208601612d70565b91505092915050565b60008060408385031215612df757612df6612a00565b5b600083013567ffffffffffffffff811115612e1557612e14612a05565b5b612e2185828601612db2565b925050602083013567ffffffffffffffff811115612e4257612e41612a05565b5b612e4e85828601612db2565b9150509250929050565b600067ffffffffffffffff821115612e7357612e72612cb5565b5b602082029050602081019050919050565b600080fd5b6000612e9c612e9784612e58565b612d15565b90508083825260208201905060208402830185811115612ebf57612ebe612e84565b5b835b81811015612ee85780612ed48882612a89565b845260208401935050602081019050612ec1565b5050509392505050565b600082601f830112612f0757612f06612cab565b5b8135612f17848260208601612e89565b91505092915050565b600067ffffffffffffffff821115612f3b57612f3a612cb5565b5b612f4482612c3f565b9050602081019050919050565b6000612f64612f5f84612f20565b612d15565b905082815260208101848484011115612f8057612f7f612cb0565b5b612f8b848285612d61565b509392505050565b600082601f830112612fa857612fa7612cab565b5b8135612fb8848260208601612f51565b91505092915050565b600080600080600060a08688031215612fdd57612fdc612a00565b5b6000612feb88828901612a53565b9550506020612ffc88828901612a53565b945050604086013567ffffffffffffffff81111561301d5761301c612a05565b5b61302988828901612ef2565b935050606086013567ffffffffffffffff81111561304a57613049612a05565b5b61305688828901612ef2565b925050608086013567ffffffffffffffff81111561307757613076612a05565b5b61308388828901612f93565b9150509295509295909350565b600067ffffffffffffffff8211156130ab576130aa612cb5565b5b602082029050602081019050919050565b60006130cf6130ca84613090565b612d15565b905080838252602082019050602084028301858111156130f2576130f1612e84565b5b835b8181101561311b57806131078882612a53565b8452602084019350506020810190506130f4565b5050509392505050565b600082601f83011261313a57613139612cab565b5b813561314a8482602086016130bc565b91505092915050565b6000806040838503121561316a57613169612a00565b5b600083013567ffffffffffffffff81111561318857613187612a05565b5b61319485828601613125565b925050602083013567ffffffffffffffff8111156131b5576131b4612a05565b5b6131c185828601612ef2565b9150509250929050565b600081519050919050565b600082825260208201905092915050565b6000819050602082019050919050565b61320081612a68565b82525050565b600061321283836131f7565b60208301905092915050565b6000602082019050919050565b6000613236826131cb565b61324081856131d6565b935061324b836131e7565b8060005b8381101561327c5781516132638882613206565b975061326e8361321e565b92505060018101905061324f565b5085935050505092915050565b600060208201905081810360008301526132a3818461322b565b905092915050565b60006132b682612a0a565b9050919050565b6132c6816132ab565b82525050565b600082825260208201905092915050565b60006132e882612bf0565b6132f281856132cc565b9350613302818560208601612c0c565b61330b81612c3f565b840191505092915050565b600082825260208201905092915050565b6000613332826131cb565b61333c8185613316565b9350613347836131e7565b8060005b8381101561337857815161335f8882613206565b975061336a8361321e565b92505060018101905061334b565b5085935050505092915050565b61338e81612b8d565b82525050565b600060c0830160008301516133ac60008601826131f7565b5060208301516133bf60208601826132bd565b50604083015184820360408601526133d782826132dd565b915050606083015184820360608601526133f182826132dd565b9150506080830151848203608086015261340b8282613327565b91505060a083015161342060a0860182613385565b508091505092915050565b600060208201905081810360008301526134458184613394565b905092915050565b60006020828403121561346357613462612a00565b5b600061347184828501612a53565b91505092915050565b61348381612b8d565b811461348e57600080fd5b50565b6000813590506134a08161347a565b92915050565b600080604083850312156134bd576134bc612a00565b5b60006134cb85828601612a53565b92505060206134dc85828601613491565b9150509250929050565b6000806000606084860312156134ff576134fe612a00565b5b600061350d86828701612a53565b935050602084013567ffffffffffffffff81111561352e5761352d612a05565b5b61353a86828701612db2565b925050604061354b86828701612a89565b9150509250925092565b600060808301600083015161356d60008601826131f7565b50602083015161358060208601826131f7565b50604083015161359360408601826132bd565b50606083015184820360608601526135ab82826132dd565b9150508091505092915050565b600060208201905081810360008301526135d28184613555565b905092915050565b600080604083850312156135f1576135f0612a00565b5b60006135ff85828601612a89565b925050602061361085828601612a89565b9150509250929050565b6000806040838503121561363157613630612a00565b5b600061363f85828601612a53565b925050602061365085828601612a53565b9150509250929050565b600080600080600060a0868803121561367657613675612a00565b5b600061368488828901612a53565b955050602061369588828901612a53565b94505060406136a688828901612a89565b93505060606136b788828901612a89565b925050608086013567ffffffffffffffff8111156136d8576136d7612a05565b5b6136e488828901612f93565b9150509295509295909350565b7f455243313135353a2061646472657373207a65726f206973206e6f742061207660008201527f616c6964206f776e657200000000000000000000000000000000000000000000602082015250565b600061374d602a83612bfb565b9150613758826136f1565b604082019050919050565b6000602082019050818103600083015261377c81613740565b9050919050565b7f4e487b7100000000000000000000000000000000000000000000000000000000600052602260045260246000fd5b600060028204905060018216806137ca57607f821691505b602082108114156137de576137dd613783565b5b50919050565b7f53414c3a20596f752063616e6e6f7420637265617465206d6f7265207468616e60008201527f203130206f7267616e697a6174696f6e732e0000000000000000000000000000602082015250565b6000613840603283612bfb565b915061384b826137e4565b604082019050919050565b6000602082019050818103600083015261386f81613833565b9050919050565b7f4e487b7100000000000000000000000000000000000000000000000000000000600052601160045260246000fd5b60006138b082612a68565b91507fffffffffffffffffffffffffffffffffffffffffffffffffffffffffffffffff8214156138e3576138e2613876565b5b600182019050919050565b7f455243313135353a2063616c6c6572206973206e6f7420746f6b656e206f776e60008201527f6572206f7220617070726f766564000000000000000000000000000000000000602082015250565b600061394a602e83612bfb565b9150613955826138ee565b604082019050919050565b600060208201905081810360008301526139798161393d565b9050919050565b7f455243313135353a206163636f756e747320616e6420696473206c656e67746860008201527f206d69736d617463680000000000000000000000000000000000000000000000602082015250565b60006139dc602983612bfb565b91506139e782613980565b604082019050919050565b60006020820190508181036000830152613a0b816139cf565b9050919050565b7f4e487b7100000000000000000000000000000000000000000000000000000000600052603260045260246000fd5b7f53414c3a204f7267616e697a6174696f6e207769746820676976656e2069642060008201527f646f6573206e6f74206578697374000000000000000000000000000000000000602082015250565b6000613a9d602e83612bfb565b9150613aa882613a41565b604082019050919050565b60006020820190508181036000830152613acc81613a90565b9050919050565b7f53414c3a204f6e6c79206f776e65722063616e2061646420656d706c6f79656560008201527f732e000000000000000000000000000000000000000000000000000000000000602082015250565b6000613b2f602283612bfb565b9150613b3a82613ad3565b604082019050919050565b60006020820190508181036000830152613b5e81613b22565b9050919050565b7f53414c3a20456d706c6f79656520697320616c7265616479206164646564207460008201527f6f206f7267616e697a6174696f6e2e0000000000000000000000000000000000602082015250565b6000613bc1602f83612bfb565b9150613bcc82613b65565b604082019050919050565b60006020820190508181036000830152613bf081613bb4565b9050919050565b7f53414c3a20456d706c6f796565207769746820676976656e20696420646f657360008201527f206e6f7420657869737400000000000000000000000000000000000000000000602082015250565b6000613c53602a83612bfb565b9150613c5e82613bf7565b604082019050919050565b60006020820190508181036000830152613c8281613c46565b9050919050565b6000613c9482612a68565b9150613c9f83612a68565b925082821015613cb257613cb1613876565b5b828203905092915050565b7f53414c3a20456d706c6f796565207769746820676976656e206964207761732060008201527f6e6f7420666f756e640000000000000000000000000000000000000000000000602082015250565b6000613d19602983612bfb565b9150613d2482613cbd565b604082019050919050565b60006020820190508181036000830152613d4881613d0c565b9050919050565b7f53414c3a204f7267616e697a6174696f6e207374696c6c2068617320656d706c60008201527f6f7965657320696e2069742e0000000000000000000000000000000000000000602082015250565b6000613dab602c83612bfb565b9150613db682613d4f565b604082019050919050565b60006020820190508181036000830152613dda81613d9e565b9050919050565b7f53414c3a204f6e6c79206f776e65722063616e2064656c657465206f7267616e60008201527f697a6174696f6e2e000000000000000000000000000000000000000000000000602082015250565b6000613e3d602883612bfb565b9150613e4882613de1565b604082019050919050565b60006020820190508181036000830152613e6c81613e30565b9050919050565b7f455243313135353a206d696e7420746f20746865207a65726f2061646472657360008201527f7300000000000000000000000000000000000000000000000000000000000000602082015250565b6000613ecf602183612bfb565b9150613eda82613e73565b604082019050919050565b60006020820190508181036000830152613efe81613ec2565b9050919050565b6000613f1082612a68565b9150613f1b83612a68565b9250827fffffffffffffffffffffffffffffffffffffffffffffffffffffffffffffffff03821115613f5057613f4f613876565b5b828201905092915050565b6000604082019050613f706000830185612ade565b613f7d6020830184612ade565b9392505050565b7f455243313135353a2069647320616e6420616d6f756e7473206c656e6774682060008201527f6d69736d61746368000000000000000000000000000000000000000000000000602082015250565b6000613fe0602883612bfb565b9150613feb82613f84565b604082019050919050565b6000602082019050818103600083015261400f81613fd3565b9050919050565b7f455243313135353a207472616e7366657220746f20746865207a65726f20616460008201527f6472657373000000000000000000000000000000000000000000000000000000602082015250565b6000614072602583612bfb565b915061407d82614016565b604082019050919050565b600060208201905081810360008301526140a181614065565b9050919050565b7f455243313135353a20696e73756666696369656e742062616c616e636520666f60008201527f72207472616e7366657200000000000000000000000000000000000000000000602082015250565b6000614104602a83612bfb565b915061410f826140a8565b604082019050919050565b60006020820190508181036000830152614133816140f7565b9050919050565b60006040820190508181036000830152614154818561322b565b90508181036020830152614168818461322b565b90509392505050565b7f455243313135353a2073657474696e6720617070726f76616c2073746174757360008201527f20666f722073656c660000000000000000000000000000000000000000000000602082015250565b60006141cd602983612bfb565b91506141d882614171565b604082019050919050565b600060208201905081810360008301526141fc816141c0565b9050919050565b7f455243313135353a206275726e2066726f6d20746865207a65726f206164647260008201527f6573730000000000000000000000000000000000000000000000000000000000602082015250565b600061425f602383612bfb565b915061426a82614203565b604082019050919050565b6000602082019050818103600083015261428e81614252565b9050919050565b7f455243313135353a206275726e20616d6f756e7420657863656564732062616c60008201527f616e636500000000000000000000000000000000000000000000000000000000602082015250565b60006142f1602483612bfb565b91506142fc82614295565b604082019050919050565b60006020820190508181036000830152614320816142e4565b9050919050565b61433081612a2a565b82525050565b600081519050919050565b600082825260208201905092915050565b600061435d82614336565b6143678185614341565b9350614377818560208601612c0c565b61438081612c3f565b840191505092915050565b600060a0820190506143a06000830188614327565b6143ad6020830187614327565b6143ba6040830186612ade565b6143c76060830185612ade565b81810360808301526143d98184614352565b90509695505050505050565b6000815190506143f481612b34565b92915050565b6000602082840312156144105761440f612a00565b5b600061441e848285016143e5565b91505092915050565b60008160e01c9050919050565b600060033d11156144535760046000803e614450600051614427565b90505b90565b600060443d1015614466576144e9565b61446e6129f6565b60043d036004823e80513d602482011167ffffffffffffffff821117156144965750506144e9565b808201805167ffffffffffffffff8111156144b457505050506144e9565b80602083010160043d0385018111156144d15750505050506144e9565b6144e082602001850186612ce4565b82955050505050505b90565b7f455243313135353a207472616e7366657220746f206e6f6e2d4552433131353560008201527f526563656976657220696d706c656d656e746572000000000000000000000000602082015250565b6000614548603483612bfb565b9150614553826144ec565b604082019050919050565b600060208201905081810360008301526145778161453b565b9050919050565b7f455243313135353a204552433131353552656365697665722072656a6563746560008201527f6420746f6b656e73000000000000000000000000000000000000000000000000602082015250565b60006145da602883612bfb565b91506145e58261457e565b604082019050919050565b60006020820190508181036000830152614609816145cd565b9050919050565b600060a0820190506146256000830188614327565b6146326020830187614327565b8181036040830152614644818661322b565b90508181036060830152614658818561322b565b9050818103608083015261466c8184614352565b9050969550505050505056fea26469706673582212208de8ff6995ed26965994f80e9611d634671b38f1bd00c204b1c8809716cc3d4f64736f6c634300080a0033",
  "linkReferences": {},
  "deployedLinkReferences": {}
}