{
  "_format": "hh-sol-artifact-1",
  "contractName": "Sal",
  "sourceName": "contracts/Sal.sol",
  "abi": [
    {
      "inputs": [
        {
          "internalType": "string",
          "name": "_FirstName",
          "type": "string"
        },
        {
          "internalType": "string",
          "name": "_LastName",
          "type": "string"
        },
        {
          "internalType": "string",
          "name": "_wallet_ddress",
          "type": "string"
        },
        {
          "internalType": "string",
          "name": "_Position",
          "type": "string"
        },
        {
          "internalType": "string",
          "name": "_Country",
          "type": "string"
        },
        {
          "internalType": "string",
          "name": "_image",
          "type": "string"
        }
      ],
      "stateMutability": "nonpayable",
      "type": "constructor"
    },
    {
      "anonymous": false,
      "inputs": [
        {
          "indexed": true,
          "internalType": "address",
          "name": "donar",
          "type": "address"
        },
        {
          "indexed": true,
          "internalType": "uint256",
          "name": "amount",
          "type": "uint256"
        },
        {
          "indexed": true,
          "internalType": "uint256",
          "name": "timestamp",
          "type": "uint256"
        }
      ],
      "name": "donated",
      "type": "event"
    },
    {
      "inputs": [],
      "name": "Country",
      "outputs": [
        {
          "internalType": "string",
          "name": "",
          "type": "string"
        }
      ],
      "stateMutability": "view",
      "type": "function"
    },
    {
      "inputs": [],
      "name": "FirstName",
      "outputs": [
        {
          "internalType": "string",
          "name": "",
          "type": "string"
        }
      ],
      "stateMutability": "view",
      "type": "function"
    },
    {
      "inputs": [],
      "name": "LastName",
      "outputs": [
        {
          "internalType": "string",
          "name": "",
          "type": "string"
        }
      ],
      "stateMutability": "view",
      "type": "function"
    },
    {
      "inputs": [],
      "name": "Position",
      "outputs": [
        {
          "internalType": "string",
          "name": "",
          "type": "string"
        }
      ],
      "stateMutability": "view",
      "type": "function"
    },
    {
      "inputs": [],
      "name": "donate",
      "outputs": [],
      "stateMutability": "payable",
      "type": "function"
    },
    {
      "inputs": [],
      "name": "image",
      "outputs": [
        {
          "internalType": "string",
          "name": "",
          "type": "string"
        }
      ],
      "stateMutability": "view",
      "type": "function"
    },
    {
      "inputs": [],
      "name": "owner",
      "outputs": [
        {
          "internalType": "address payable",
          "name": "",
          "type": "address"
        }
      ],
      "stateMutability": "view",
      "type": "function"
    },
    {
      "inputs": [],
      "name": "recievedamnt",
      "outputs": [
        {
          "internalType": "uint256",
          "name": "",
          "type": "uint256"
        }
      ],
      "stateMutability": "view",
      "type": "function"
    },
    {
      "inputs": [],
      "name": "wallet_address",
      "outputs": [
        {
          "internalType": "string",
          "name": "",
          "type": "string"
        }
      ],
      "stateMutability": "view",
      "type": "function"
    }
  ],
  "bytecode": "0x60806040523480156200001157600080fd5b5060405162000dcf38038062000dcf833981810160405281019062000037919062000367565b85600090805190602001906200004f9291906200011a565b508460019080519060200190620000689291906200011a565b508360029080519060200190620000819291906200011a565b5082600390805190602001906200009a9291906200011a565b508160049080519060200190620000b39291906200011a565b508060059080519060200190620000cc9291906200011a565b5033600760006101000a81548173ffffffffffffffffffffffffffffffffffffffff021916908373ffffffffffffffffffffffffffffffffffffffff16021790555050505050505062000522565b8280546200012890620004ec565b90600052602060002090601f0160209004810192826200014c576000855562000198565b82601f106200016757805160ff191683800117855562000198565b8280016001018555821562000198579182015b82811115620001975782518255916020019190600101906200017a565b5b509050620001a79190620001ab565b5090565b5b80821115620001c6576000816000905550600101620001ac565b5090565b6000604051905090565b600080fd5b600080fd5b600080fd5b600080fd5b6000601f19601f8301169050919050565b7f4e487b7100000000000000000000000000000000000000000000000000000000600052604160045260246000fd5b6200023382620001e8565b810181811067ffffffffffffffff82111715620002555762000254620001f9565b5b80604052505050565b60006200026a620001ca565b905062000278828262000228565b919050565b600067ffffffffffffffff8211156200029b576200029a620001f9565b5b620002a682620001e8565b9050602081019050919050565b60005b83811015620002d3578082015181840152602081019050620002b6565b83811115620002e3576000848401525b50505050565b600062000300620002fa846200027d565b6200025e565b9050828152602081018484840111156200031f576200031e620001e3565b5b6200032c848285620002b3565b509392505050565b600082601f8301126200034c576200034b620001de565b5b81516200035e848260208601620002e9565b91505092915050565b60008060008060008060c08789031215620003875762000386620001d4565b5b600087015167ffffffffffffffff811115620003a857620003a7620001d9565b5b620003b689828a0162000334565b965050602087015167ffffffffffffffff811115620003da57620003d9620001d9565b5b620003e889828a0162000334565b955050604087015167ffffffffffffffff8111156200040c576200040b620001d9565b5b6200041a89828a0162000334565b945050606087015167ffffffffffffffff8111156200043e576200043d620001d9565b5b6200044c89828a0162000334565b935050608087015167ffffffffffffffff81111562000470576200046f620001d9565b5b6200047e89828a0162000334565b92505060a087015167ffffffffffffffff811115620004a257620004a1620001d9565b5b620004b089828a0162000334565b9150509295509295509295565b7f4e487b7100000000000000000000000000000000000000000000000000000000600052602260045260246000fd5b600060028204905060018216806200050557607f821691505b602082108114156200051c576200051b620004bd565b5b50919050565b61089d80620005326000396000f3fe6080604052600436106100865760003560e01c8063aff65cfe11610059578063aff65cfe14610137578063c84c9ef514610162578063e776a5b51461018d578063ed88c68e146101b8578063f3ccaac0146101c257610086565b80631cd313e61461008b5780633ad65654146100b6578063726ade0f146100e15780638da5cb5b1461010c575b600080fd5b34801561009757600080fd5b506100a06101ed565b6040516100ad919061064f565b60405180910390f35b3480156100c257600080fd5b506100cb6101f3565b6040516100d89190610703565b60405180910390f35b3480156100ed57600080fd5b506100f6610281565b6040516101039190610703565b60405180910390f35b34801561011857600080fd5b5061012161030f565b60405161012e9190610766565b60405180910390f35b34801561014357600080fd5b5061014c610335565b6040516101599190610703565b60405180910390f35b34801561016e57600080fd5b506101776103c3565b6040516101849190610703565b60405180910390f35b34801561019957600080fd5b506101a2610451565b6040516101af9190610703565b60405180910390f35b6101c06104df565b005b3480156101ce57600080fd5b506101d76105a8565b6040516101e49190610703565b60405180910390f35b60065481565b60008054610200906107b0565b80601f016020809104026020016040519081016040528092919081815260200182805461022c906107b0565b80156102795780601f1061024e57610100808354040283529160200191610279565b820191906000526020600020905b81548152906001019060200180831161025c57829003601f168201915b505050505081565b6003805461028e906107b0565b80601f01602080910402602001604051908101604052809291908181526020018280546102ba906107b0565b80156103075780601f106102dc57610100808354040283529160200191610307565b820191906000526020600020905b8154815290600101906020018083116102ea57829003601f168201915b505050505081565b600760009054906101000a900473ffffffffffffffffffffffffffffffffffffffff1681565b60048054610342906107b0565b80601f016020809104026020016040519081016040528092919081815260200182805461036e906107b0565b80156103bb5780601f10610390576101008083540402835291602001916103bb565b820191906000526020600020905b81548152906001019060200180831161039e57829003601f168201915b505050505081565b600180546103d0906107b0565b80601f01602080910402602001604051908101604052809291908181526020018280546103fc906107b0565b80156104495780601f1061041e57610100808354040283529160200191610449565b820191906000526020600020905b81548152906001019060200180831161042c57829003601f168201915b505050505081565b6002805461045e906107b0565b80601f016020809104026020016040519081016040528092919081815260200182805461048a906107b0565b80156104d75780601f106104ac576101008083540402835291602001916104d7565b820191906000526020600020905b8154815290600101906020018083116104ba57829003601f168201915b505050505081565b600760009054906101000a900473ffffffffffffffffffffffffffffffffffffffff1673ffffffffffffffffffffffffffffffffffffffff166108fc349081150290604051600060405180830381858888f19350505050158015610547573d6000803e3d6000fd5b50346006600082825461055a9190610811565b9250508190555042343373ffffffffffffffffffffffffffffffffffffffff167fe6add99d06d9ad7fc456e746aa162eed6211c5002ef2dacdd67b8d2016822fba60405160405180910390a4565b600580546105b5906107b0565b80601f01602080910402602001604051908101604052809291908181526020018280546105e1906107b0565b801561062e5780601f106106035761010080835404028352916020019161062e565b820191906000526020600020905b81548152906001019060200180831161061157829003601f168201915b505050505081565b6000819050919050565b61064981610636565b82525050565b60006020820190506106646000830184610640565b92915050565b600081519050919050565b600082825260208201905092915050565b60005b838110156106a4578082015181840152602081019050610689565b838111156106b3576000848401525b50505050565b6000601f19601f8301169050919050565b60006106d58261066a565b6106df8185610675565b93506106ef818560208601610686565b6106f8816106b9565b840191505092915050565b6000602082019050818103600083015261071d81846106ca565b905092915050565b600073ffffffffffffffffffffffffffffffffffffffff82169050919050565b600061075082610725565b9050919050565b61076081610745565b82525050565b600060208201905061077b6000830184610757565b92915050565b7f4e487b7100000000000000000000000000000000000000000000000000000000600052602260045260246000fd5b600060028204905060018216806107c857607f821691505b602082108114156107dc576107db610781565b5b50919050565b7f4e487b7100000000000000000000000000000000000000000000000000000000600052601160045260246000fd5b600061081c82610636565b915061082783610636565b9250827fffffffffffffffffffffffffffffffffffffffffffffffffffffffffffffffff0382111561085c5761085b6107e2565b5b82820190509291505056fea26469706673582212204e7e5f939c4b66c573f3151c35d5515cc5a4ca11dac15bd3a7992b43a676079d64736f6c634300080a0033",
  "linkReferences": {},
  "deployedLinkReferences": {}
}